:020000040800F2
:10000000000C0020C9130008310E0008350E00084E
:1000100000000000000000000000000000000000E0
:10002000000000000000000000000000390E000881
:1000300000000000000000003D0E0008410E000816
:10004000000000000000000000000000191400087B
:1000500019140008191400081914000819140008CC
:100060000000000000000000000000000000000090
:1000700019140008191400081914000800000000E1
:10008000000000001914000800000000000000003B
:1000900000000000191400080000000019140008F6
:1000A00000000000191400080000000019140008E6
:1000B0000000000000000000000000000000000040
:1000C000002243088B4274D303098B425FD3030A97
:1000D0008B4244D3030B8B4228D3030C8B420DD3AA
:1000E000FF22090212BA030C8B4202D31212090238
:1000F00065D0030B8B4219D300E0090AC30B8B4276
:1001000001D3CB03C01A5241830B8B4201D38B0323
:10011000C01A5241430B8B4201D34B03C01A5241C8
:10012000030B8B4201D30B03C01A5241C30A8B420B
:1001300001D3CB02C01A5241830A8B4201D38B02F6
:10014000C01A5241430A8B4201D34B02C01A52419A
:10015000030A8B4201D30B02C01A5241CDD2C3090C
:100160008B4201D3CB01C01A524183098B4201D388
:100170008B01C01A524143098B4201D34B01C01A73
:10018000524103098B4201D30B01C01A5241C308EB
:100190008B4201D3CB00C01A524183088B4201D35A
:1001A0008B00C01A524143088B4201D34B00C01A46
:1001B0005241411A00D20146524110467047FFE7B2
:1001C00001B5002000F006F802BDC0460029F7D0B6
:1001D00076E770477047C0460448054B10B5834228
:1001E00003D0044B002B00D0984710BD1400002012
:1001F000140000200000000006480749091A8B106F
:10020000C90FC91810B5491003D0044B002B00D0FA
:10021000984710BD140000201400002000000000CA
:1002200010B5074C2378002B09D1FFF7D5FF054BFC
:10023000002B02D0044800E000BF0123237010BD52
:1002400014000020000000001C140008054B10B52D
:10025000002B03D00449054800E000BFFFF7CCFFA6
:1002600010BDC04600000000180000201C1400084B
:1002700070B500260C4C0D4D641BA410A64209D18C
:10028000002601F0CBF80A4C0A4D641BA410A642CC
:1002900005D170BDB300EB5898470136EEE7B300C7
:1002A000EB5898470136F2E754140008541400083C
:1002B00058140008541400080749084A4B6812688B
:1002C0001B0C1B04134380229201134380224B60BA
:1002D000034B12059A60704700100240040FFF1F85
:1002E00000ED00E070B5A025ED050221280000F02A
:1002F00051FF684C207800F03FFE0221280000F0FA
:100300004BFF207800F038FE0221280000F042FF69
:10031000207800F031FE0221280000F03DFF207817
:1003200000F02AFE0221280000F034FF207800F0BF
:1003300023FE0221280000F02FFF207800F01CFE91
:100340000221280000F026FF207800F015FE02218F
:10035000280000F021FF207800F00EFE0221280086
:1003600000F018FF207800F007FE0221280000F0BE
:1003700013FF207800F000FE0221280000F00AFFA1
:10038000207800F0F9FD0221280000F005FF207818
:1003900000F0F2FD0221280000F0FCFE207800F0C1
:1003A000EBFD0221280000F0F7FE207800F0E4FDCC
:1003B0000221280000F0EEFE207800F0DDFD022191
:1003C000280000F0E9FE207800F0D6FD0221280088
:1003D00000F0E0FE207800F0CFFD0221280000F0C0
:1003E000DBFE207800F0C8FD0221280000F0D2FEDC
:1003F000207800F0C1FD0221280000F0CDFE207819
:1004000000F0BAFD0221280000F0C4FE207800F0C0
:10041000B3FD0221280000F0BFFE207800F0ACFD03
:100420000221280000F0B6FE207800F0A5FD022190
:10043000280000F0B1FE207800F09EFD0221280087
:1004400000F0A8FE207800F097FD0221280000F0BF
:10045000A3FE207800F090FD0221280000F09AFE13
:10046000207800F089FD0221280000F095FE207818
:1004700000F082FD0221280000F08CFE207800F0C0
:100480007BFD0221280000F087FE207800F074FD3B
:1004900070BDC0460400002010B5A024E405202152
:1004A000200000F077FE0121054800F073FE802156
:1004B000200000F06FFE4021200000F06BFE10BD18
:1004C0000014005010B5A024E4054021200000F0E5
:1004D00063FE2021200000F05FFE0121034800F0B0
:1004E0005BFE8021200000F057FE10BD001400507C
:1004F00070B5A0242A4DE4052800012100F04AFE31
:100500002021200000F046FE264B187800F034FD34
:100510008021200000F03EFE4021200000F03AFE45
:10052000214B188800F028FD2800012100F034FE3E
:100530002021200000F030FE8021200000F02CFE61
:100540004021200000F028FE184E307800F014FD05
:100550008021200000F01EFE4021200000F01AFE45
:100560002800012100F016FE2021200000F012FEDC
:10057000307800F001FD2800012100F00DFE20215F
:10058000200000F009FE8021200000F005FE40213F
:10059000200000F001FE307800F0EEFC70BDC04697
:1005A00000140050060000200A0000200700002070
:1005B00070B5A0251D4E0121300000F0EBFD1C4C54
:1005C000ED05207800F0D8FC2021280000F0E2FDA5
:1005D000207800F0D1FC4021280000F0DBFD2078DD
:1005E00000F0CAFC8021280000F0D4FD207800F043
:1005F000C3FC0121300000F0CFFD207800F0BCFCEE
:100600002021280000F0C8FD207800F0B5FC402132
:10061000280000F0C1FD207800F0AEFC8021280009
:1006200000F0BAFD207800F0A7FC70BD0014005067
:100630000600002070B5A024E4054E4D20212000C6
:1006400000F0A8FD2800012100F0A4FD8021200079
:1006500000F0A0FD4021200000F09CFD464B1888D2
:1006600000F08AFC2021200000F096FD28000121E6
:1006700000F092FD8021200000F08EFD402120003E
:1006800000F08AFD3D4E307800F076FC20212000FD
:1006900000F080FD2800012100F07CFD8021200079
:1006A00000F078FD4021200000F074FD307800F06B
:1006B00063FC2021200000F06FFD2800012100F0E4
:1006C0006BFD8021200000F067FD4021200000F03C
:1006D00063FD307800F050FC2021200000F05AFD2E
:1006E0002800012100F056FD8021200000F052FD7D
:1006F0004021200000F04EFD307800F03DFC20212C
:10070000200000F049FD2800012100F045FD802176
:10071000200000F041FD4021200000F03DFD307838
:1007200000F02AFC2021200000F034FD28000121E7
:1007300000F030FD8021200000F02CFD4021200041
:1007400000F028FD307800F017FC2021200000F098
:1007500023FD2800012100F01FFD8021200000F072
:100760001BFD4021200000F017FD307800F004FC54
:1007700070BDC04600140050080000200700002093
:1007800070B5A025394E0121300000F003FD384C32
:10079000ED05207800F0F0FB0121300000F0FCFCBA
:1007A000207800F0E9FB2021280000F0F3FC2078FD
:1007B00000F0E2FB2021280000F0EEFC207800F0A1
:1007C000DBFB4021280000F0E5FC207800F0D4FBA2
:1007D0004021280000F0E0FC207800F0CDFB8021D3
:1007E000280000F0D7FC207800F0C6FB802128000C
:1007F00000F0D2FC207800F0BFFB8021280000F040
:10080000C9FC207800F0B8FB8021280000F0C4FC6F
:10081000207800F0B1FB4021280000F0BBFC2078DC
:1008200000F0AAFB4021280000F0B6FC207800F080
:10083000A3FB2021280000F0ADFC207800F09CFBF9
:100840002021280000F0A8FC207800F095FB012171
:10085000300000F09FFC207800F08EFB012130007A
:1008600000F09AFC207800F087FB70BD0014005067
:100870000600002070B5A024E405474E202120008A
:1008800000F088FC3000012100F084FC8021200071
:1008900000F080FC4021200000F07CFC3F4B1888D9
:1008A00000F06AFB4021200000F076FC20212000AF
:1008B00000F072FC3000012100F06EFC802120006D
:1008C00000F06AFC364D287800F056FB300001211C
:1008D00000F060FC4021200000F05CFC287800F073
:1008E0004BFB3000012100F057FC4021200000F0BC
:1008F00053FC287800F040FB2021200000F04AFC47
:100900008021200000F046FC287800F035FB2021F3
:10091000200000F041FC8021200000F03DFC287800
:1009200000F02AFB2021200000F034FC287800F0A1
:1009300023FB2021200000F02FFC287800F01CFB76
:100940008021200000F026FC287800F015FB802193
:10095000200000F021FC287800F00EFB4021200050
:1009600000F018FC287800F007FB4021200000F080
:1009700013FC287800F000FB0121300000F00AFC95
:10098000287800F0F9FA0121300000F005FC287801
:1009900000F0F2FA70BDC0460014005008000020BC
:1009A0000700002070B5A025E14E0121300000F0C5
:1009B000F1FBE04CED05207800F0DEFA012130007B
:1009C00000F0EAFB207800F0D7FA2021280000F0A0
:1009D000E1FB207800F0D0FA2021280000F0DCFBB9
:1009E000207800F0C9FA4021280000F0D3FB2078DD
:1009F00000F0C2FA4021280000F0CEFB207800F081
:100A0000BBFA8021280000F0C5FB207800F0B4FA82
:100A10008021280000F0C0FB207800F0ADFA012111
:100A2000300000F0B7FB207800F0A6FA012130007A
:100A300000F0B2FB207800F09FFA2021280000F09F
:100A4000A9FB207800F098FA2021280000F0A4FBF0
:100A5000207800F091FA4021280000F09BFB2078DC
:100A600000F08AFA4021280000F096FB207800F080
:100A700083FA8021280000F08DFB207800F07CFABA
:100A80008021280000F088FB207800F075FA012111
:100A9000300000F07FFB207800F06EFA012130007A
:100AA00000F07AFB207800F067FA2021280000F09F
:100AB00071FB207800F060FA2021280000F06CFB28
:100AC000207800F059FA4021280000F063FB2078DC
:100AD00000F052FA4021280000F05EFB207800F080
:100AE0004BFA8021280000F055FB207800F044FAF2
:100AF0008021280000F050FB207800F03DFA012111
:100B0000300000F047FB207800F036FA0121300079
:100B100000F042FB207800F02FFA2021280000F09E
:100B200039FB207800F028FA2021280000F034FB5F
:100B3000207800F021FA4021280000F02BFB2078DB
:100B400000F01AFA4021280000F026FB207800F07F
:100B500013FA8021280000F01DFB207800F00CFA29
:100B60008021280000F018FB207800F005FA012110
:100B7000300000F00FFB207800F0FEF9012130007A
:100B800000F00AFB207800F0F7F92021280000F09F
:100B900001FB207800F0F0F92021280000F0FCFA99
:100BA000207800F0E9F94021280000F0F3FA2078DD
:100BB00000F0E2F94021280000F0EEFA207800F081
:100BC000DBF98021280000F0E5FA207800F0D4F964
:100BD0008021280000F0E0FA207800F0CDF9012112
:100BE000300000F0D7FA207800F0C6F9012130007B
:100BF00000F0D2FA207800F0BFF92021280000F0A0
:100C0000C9FA207800F0B8F92021280000F0C4FAD1
:100C1000207800F0B1F94021280000F0BBFA2078DC
:100C200000F0AAF94021280000F0B6FA207800F080
:100C3000A3F98021280000F0ADFA207800F09CF99B
:100C40008021280000F0A8FA207800F095F9012111
:100C5000300000F09FFA207800F08EF9012130007A
:100C600000F09AFA207800F087F92021280000F09F
:100C700091FA207800F080F92021280000F08CFA09
:100C8000207800F079F94021280000F083FA2078DC
:100C900000F072F94021280000F07EFA207800F080
:100CA0006BF98021280000F075FA207800F064F9D3
:100CB0008021280000F070FA207800F05DF9012111
:100CC000300000F067FA207800F056F9012130007A
:100CD00000F062FA207800F04FF92021280000F09F
:100CE00059FA207800F048F92021280000F054FA41
:100CF000207800F041F94021280000F04BFA2078DC
:100D000000F03AF94021280000F046FA207800F07F
:100D100033F98021280000F03DFA207800F02CF90A
:100D20008021280000F038FA207800F025F970BD05
:100D30000014005005000020F0B501253A4C8DB09C
:100D400000F0FCF8636BA0202B436363636B012608
:100D50002B40019302270222019B012306A9C00513
:100D6000069207930896099700F018F9636BA02084
:100D70002B436363636B40222B400293029B01234E
:100D800006A9C005069207930896099700F006F990
:100D9000636BA0202B436363636B80222B40039320
:100DA000039B012306A9C00506920793089609979D
:100DB00000F0F4F8636BA0202B436363636B202285
:100DC0001D400495049B012306A9C00506920793C4
:100DD0000896099700F0E2F82023626B13481A4343
:100DE0006263626B06A9134005930122059B0123F0
:100DF000089609970692079300F0D0F800F026F8BD
:100E0000FFF74AFBFFF76EFAFFF75CFBFFF712FCF8
:100E1000FFF76EFBFFF7CCFBFFF7B2FCFFF72AFDF5
:100E2000FFF7C0FDF2E7C04600100240001400507A
:100E30007047C046FEE7C0467047C0467047C04690
:100E400010B500F087F810BD7047C0460023802120
:100E500030B5244C8BB00193226CC9010A43226443
:100E6000226C21480A400192019A204A0125026021
:100E7000E12283605202C360036183610C334260EC
:100E8000436100F0F1F9636B04222B436363636BEE
:100E900004A92B400293029B636B2B436363636B38
:100EA000A0242B400393039B022304920593012269
:100EB0000323E405200006920793089500F06EF8DE
:100EC0000823200004A90493089500F067F8012284
:100ED00000211B2000F062F91B2000F089F90BB003
:100EE00030BDC046001002403000002000380140F4
:100EF0000F4B70B519680400002901D1012070BDA5
:100F0000FA208000FFF7DCF80A4D01002868FFF79F
:100F1000D7F800F079F90028F0D1032CEED8013889
:100F20000022210000F03AF9034B00201C60E6E7A4
:100F30000C000020000000201000002010B503204D
:100F4000FFF7D6FF041E02D00124200010BDFFF7DA
:100F50007BFFFAE7034A0449136809685B181360CA
:100F60007047C046740000200C000020014B186838
:100F70007047C0467400002070B50400FFF7F6FF0C
:100F80000500631C02D0044B1B68E418FFF7EEFF5A
:100F9000401BA042FAD370BD0C000020F0B54546BE
:100FA000DE4657464E46E0B50D68002383B0002D5F
:100FB00000D189E0754F009101242E009C4026400D
:100FC000019625427BD0009A1021526816008E436C
:100FD000B146022E00D17EE001688B4659008C4656
:100FE00003216646B1408A46C9435646884659465B
:100FF000B1438B46032166461140B1408A465946AB
:10100000564631430160012149428A46D14449464E
:10101000012900D895E04646C468009926408C68AE
:1010200061468C40802134434905C4600A4246D061
:1010300056499C088C46A4006444216E8C460321CA
:101040001940C90088460F214646B140894661468D
:101050004E46B1438C46A021C90588420CD04C496C
:1010600089460121484500D002214646B1408946C3
:1010700061464E4631438C466146216680217C584C
:101080000199C9438C46D10300D57CE061460C40F0
:1010900080217C5084243C59910300D570E0614646
:1010A0000C4084217C503C68D10266D461460C40DF
:1010B0003C607C6892025DD4624614407C602A00E9
:1010C0000133DA4000D077E703B0F0BCBB46B2464C
:1010D000A946A046F0BDD90889008C4684446146E3
:1010E000096A8A4607211940890088460F21464629
:1010F000B140894651464E46B14346468A4600991C
:101100000969B140884651464646314388466146A2
:1011100046460E6201688A4659008C46032166469F
:10112000B1408946C9434E4688465146B1438A4636
:10113000032166461140B140894651464E4631432F
:10114000016081680E0041460E400099B246C968B0
:101150000E0061468E40B146564649460E438660B3
:1011600041680E000121A64314090C409C40344301
:10117000446050E7019A1443A0E701990C4397E7B4
:1011800001990C438DE701990C4381E70018024057
:10119000000400508161704781627047FF22032381
:1011A00010B514000340DB009C4089010A40E44371
:1011B0009A4000280BDB0C4BC0219C468008800025
:1011C00060448900435823401343435010BD0F230C
:1011D000064903408C46083B9B089B006344D96941
:1011E0000C401443DC61F1E700E100E000ED00E0B9
:1011F000002805DB1F22012302409340014A1360AF
:101200007047C04600E100E08022431E52040120E6
:1012100093420ED2C021074A07485360036A090669
:101220001B021B0A0B430362002300209360073359
:101230001360704710E000E000ED00E0064B074946
:101240009B68074A5B045B0F9B005B581F2110687B
:101250000B40D8407047C0460010024034140008CC
:10126000000000207047C046F8B5041E00D19DE084
:101270003D23C35CDAB2002B00D18BE03D23242256
:10128000E25423684A49DA6820690A40DA601A6938
:101290000A40E1680A431A61A268D968024360699A
:1012A0000243444801400A43DA605A694248E1690E
:1012B00002400A435A615A6940480240A069024309
:1012C0005A6180231B01994240D0FFF7B7FF83008A
:1012D000616818188300C0188900FEF7F1FE6421C8
:1012E0000700FEF773FF080132306421FEF7E8FEC5
:1012F000642106003800FEF7E3FE25680001361879
:10130000AE60236A002B0BD05B0609D56B692C49B4
:10131000626A0B4013436B6180235B019A423ED0AB
:101320002B69254A0020134008222B616B699343E7
:101330006B618023EA689B011343EB6000233D222D
:1013400023642033A3540132A354F8BDFFF776FF82
:101350008300616818188300C0184900FEF7B0FECA
:1013600064210700FEF732FFC80032306421FEF727
:10137000A7FE642106003800FEF7A2FE0723000145
:101380003340C018F82376005B0025681E4086199C
:10139000AE60B6E73C33C254FFF764FF6EE76B699B
:1013A000084A1340A26A13436B61B9E70120CCE7F6
:1013B000FFDFFFFFF3E9FFFFFFF7FFFFFFFCFFFF8A
:1013C000FFEFFFFFFF9FFFFF0D4885460D480E49C9
:1013D0000E4A002302E0D458C4500433C4188C428F
:1013E000F9D30B4A0B4C002301E013600432A242F4
:1013F000FBD3FEF761FFFEF73BFFFFF79DFCFEE727
:10140000000C002000000020140000205C140008E4
:101410001400002078000020FEE70000F8B5C04668
:10142000F8BC08BC9E467047F8B5C046F8BC08BC7E
:041430009E4670471D
:1014340000000000000000000000000000000000A8
:10144400010000000200000003000000040000008E
:041454004D0200083D
:041458002102000865
:10145C0000127A00F432FAC8B80BD0070100000071
:04146C000400000078
:04000005080013C913
:00000001FF
